S01F00007474765F636C695F6B65726E656C5F6D69637269756D6F732E733337C9
S113000000100020E90F000063B3000063B3000098
S113001063B3000063B3000063B3000063B3000084
S113002063B3000063B3000063B3000063B3000074
S113003063B3000063B300004375000063B30000C2
S113004063B3000063B300006D1800006D19000075
S113005063B3000063B3000063B3000063B3000044
S113006063B3000063B3000063B3000063B3000034
S113007063B300008919000063B3000063B3000098
S113008063B3000063B3000063B3000063B3000014
S113009063B3000063B3000063B3000063B3000004
S11300A063B3000063B3000063B3000063B30000F4
S11300B063B3000063B3000063B300004592000023
S11300C063B3000063B3000063B3000063B30000D4
S11300D063B3000063B3000063B3000063B30000C4
S11300E063B3000063B3000063B3000063B30000B4
S11300F063B3000063B3000063B3000063B30000A4
S113010063B3000063B30000FD0E0000E9B2000019
S113011063B3000063B3000063B3000063B3000083
S113012063B3000063B3000063B3000063B3000073
S113013063B3000063B3000063B3000063B3000063
S113014063B3000063B3000063B3000063B3000053
S1130150000000000000000000000000000000009B
S113016001F0FF01102A2BDB10F0070F08D010F864
S1130170013B013A8B422DD010F0070F42B3F6D168
S1130180F0B441EA012141EA014122F007047FF081
S113019000070023F0E80256083C85EA010586EAD8
S11301A0010685FA47F5A3FA87F586FA47F6A5FA14
S11301B087F68EB9EED1F0BC01F0FF0102F0070220
S11301C032B110F8013B013A83EA010313B1F8D1CB
S11301D00020704701387047002D06BF35460338AC
S11301E0073815F0010F07D1013015F4807F02BFE5
S11301F0013015F4C03F0130F0BC0138704700BF36
S11302002DE9F843E1212DED028B7A2000F0F2FC78
S1130210954D964C2860E2217A2000F0EBFC296889
S1130220206059B1924809F0A1FF924A002313704B
S1130230914A1370BDEC028BBDE8F8838F4E904D4C
S11302403368012B40F2FE808E4A11688B4288BFCE
S113025013608D4A11688B4238BF136010F47C7FA1
S113026000F0C580894A1368870503F10103136010
S11302700BD583217A2000F0BDFC854B87211860C3
S11302807A2000F0B7FC834B18602368D80524D586
S11302907F4FDFF800823B6813B1D8F8003053B9C0
S11302A083217A2000F0A6FC872138607A2000F0B0
S11302B0A1FCC8F80000396879B1D8F8002062B10F
S11302C0822000F0E5FB744BD8F8002018603968F0
S11302D0862000F0DDFB714B1860236813F0700F6B
S11302E000F08580DFF804826D4FDFF804928020EF
S11302F000F0F2FBD8ED007A07EE100AF8EE677A08
S1130300842087EE277A87ED007A00F0E5FBD8EDAC
S1130310007ADFF8E081F8EE677A07EE100A87EEDC
S1130320277A81217A20D7ED007A88ED007AF5EEDC
S1130330407AF1EE10FA04BF5A4A1368B5EE407AD7
S113034004BF01331360F1EE10FA01BF564A13687B
S11303500133136000F04EFC8521C9F800007A20B7
S113036000F048FCD7ED006A504BD8ED008A99EDB7
S1130370007A9FED4F6A186038EEE68A4D4B07EE1F
S1130380900AB8EE477A83ED008A27EE067A4A4B44
S1130390F8EE677A83ED007A67EE867A474B16EEBD
S11303A0900AC3ED007A09F0D5F82BA3D3E9002312
S11303B009F052FA09F0E0FB414B186018EE900A7C
S11303C009F0C8F824A3D3E9002309F045FA09F099
S11303D0D3FB3C4B186018EE100A09F0BBF820A3BD
S11303E0D3E9002309F038FA09F0C6FB2860364A3D
S11303F0336811688B4288BF1360344A11688B429A
S113040038BF1360226811070AD031490B680133E1
S11304100B60D30704D52F4800F016FB2E4B186051
S1130420D5ED007A2D48FDEEE77A17EE901A09F023
S11304309DFE0722DD215A2000F084FB284B012277
S11304401A70F7E6274A284813680133136009F045
S113045013FFE5E7AFF3008095D626E80B2E113E97
S113046011EA2D819997713D40190020441900200B
S11304700EC900004D2C00204C2C002048190020EF
S1130480D818002028190020281000201019002056
S1130490DC180020E0180020F0180020EC180020E0
S11304A0081900203C19002018190020E418002025
S11304B00000003CD4180020FC180020F81800208C
S11304C00C190020041900202C1900202C100020E5
S11304D0141900205F708930F41800203BC9000013
S11304E0591200203819002029C900004C19002095
S11304F0E8180020001900202DE9884800F066FA69
S11305006CA7D7E90067604DDFF8B0A1DFF8B0B1A0
S1130510DAF800300133CAF800309BF80030002BC1
S113052037D12B78012BDCB233D1E9217A2000F0CA
S113053061FB564B1860564B1A78012A40F08E80A6
S1130540FFF75EFE534CD4ED007AF5EEC07AF1EE7F
S113055010FA1EDD2068DFF86C8108F0FBFF3B46D3
S1130560324609F079F909F0E7FAC0B288F80000D8
S113057098F80020DA215A2000F0E4FA98F80020D4
S1130580DB215A2000F0DEFA434B22681A60002374
S11305902360DFF8349199F80030002BB8D03F483D
S11305A0DFF828B1DFF828A1DFF8288109F064FE1C
S11305B03B4900242C700C708BF800408AF80040F2
S11305C000F032FA012388F8003099F80020632AF9
S11305D02DD099F800000228C2B241D0032A49D094
S11305E09A422F4900D10A70DA217A2000F002FBE6
S11305F007EE900A284CF8EE677AC4ED007A20687A
S113060008F0A8FF32463B4608F0FCFF09F0B4FAB4
S11306102060206808F09EFF02460B46214809F03E
S1130620A5FD8B2000F07CFA002388F8003000F050
S11306305FF97A20E12100F0DDFA01461A4809F059
S113064095FDE1217A2000F0D5FA00283FF45CAF53
S1130650164809F011FE00232B7055E71C7071E752
S11306608BF8003000F0D6F8114A2146142006F029
S113067021FEB9E78AF8003000F002F99A2000F070
S11306804FFAF1E7AFF300804D2C00204819002009
S113069058120020301900203419002069C90000C4
S11306A0492C002073C9000085C900009BC90000C3
S11306B050190020295C8FC2F528EC3F2419002032
S11306C0591200204E2C00205A1200204A2C0020DF
S11306D04B2C00204C2C002010B5054C237833B94A
S11306E0044B13B10448AFF300800123237010BD01
S11306F0B81800200000000044DB000008B5034BDC
S11307001BB103490348AFF3008008BD000000009B
S1130710BC18002044DB0000A3F5803A704700BFFA
S1130720174B002B08BF134B9D46FFF7F5FF002125
S11307308B460F461348144A121A0BF046FF0E4B11
S1130740002B00D098470D4B002B00D09847002079
S1130750002104000D000D48002802D00C48AFF31E
S1130760008009F0EFFB200029000AF082FD09F067
S1130770D5FB00BF000008000000000000000000DE
S1130780001000206C1200208050002000000000A7
S113079000000000D0E9022152F82120034B126826
S11307A0D117C3E9002100F0E1B800BF70120020A6
S11307B008B5094809F060FD084B1968084B18682A
S11307C00BF0ECFB074B187028B9BDE8084006484D
S11307D026210AF0CDBD08BDACC8000024100020BD
S11307E03C100020482C0020DEC80000064A136894
S11307F001331360054B00221A70054B4FF48052ED
S1130800C3F82424704700BF201900205912002087
S11308100080084030B5184D0FCD91B001AC0FC425
S11308200FCD0FC40FCD0FC495E80700134B84E818
S113083007000E221A60C021CE2301AA5A2000F01C
S1130840A5F90122D0215A2000F07CF90022D121FF
S11308505A2000F077F90022D2215A2000F072F9D0
S11308602822DA215A2000F06DF92822DB215A20AF
S113087000F068F911B030BDC8CA00004C1900205E
S113088030B5194D0FCD91B001AC0FC40FCD0FC4CD
S11308900FCD0FC495E80700144B84E807000A2223
S11308A01A60C021CE2301AA5A2000F06FF9012258
S11308B0D0215A2000F046F949F64042D1215A206D
S11308C000F040F949F64042D2215A2000F03AF9AA
S11308D04422DA215A2000F035F94422DB215A203F
S11308E000F030F911B030BD04CB00004C190020E9
S11308F0104A114900231360104A1360104A136010
S1130900104A1360104A1360104A1360104A1360AF
S1130910104A13604FF0FF320A600F490B600F4911
S11309200A600F4A13600F4A13700F4B01221A70AA
S1130930704700BF20190020281000201019002043
S113094014190020241900201C1900203C1900202F
S11309501819002038190020281900202C10002014
S11309602C1900205A1200204D2C002010B5002311
S11309708AB00222CDE906324FF480711922CDE902
S113098002210C4A0C4C01921422CDE9043300924A
S11309900A490B4A0B48089406F064FA23783BB1E1
S11309A0094840F207110AB0BDE810400AF0E0BC63
S11309B00AB010BD601900205019002048C9000079
S11309C0F9040000601D00205FC9000007B513484A
S11309D0012102F0CFFD0422104600230D2104F072
S11309E049FB0023184601220C2104F043FB012398
S11309F00C220020CDE90003114604F0D1FA00F0E6
S1130A008BFF07490C2000F09FFF064B4FF48052E8
S1130A10C3F8282403B05DF804FB00BF00550A00A6
S1130A20ED0700000080084608B5992000F078F82A
S1130A305A20044AC02100F085F8BDE808408A2005
S1130A4000F06EB899A3DB4808B5E4212DED028BC4
S1130A5008EE100A7A2000F0CDF8030C07EE903A65
S1130A60DFED096A9FED096AF8EEE77A67EEA67A88
S1130A7086EE277A67EE267AC7EE887ABDEC028B7B
S1130A8017EE900A08BD00BFBD3786340000003958
S1130A9038B50C461546C1B27A2000F0ABF8631B9A
S1130AA007EE903A9FED0B7AF8EE677AC4EB4503B4
S1130AB0C7EE276A07EE900AB8EE677A07EE903A17
S1130AC0F8EE677A67EEA67A57EE267A17EE900A62
S1130AD038BD00BF0000AF4308B5C1B27A2000F0B2
S1130AE089F8BDE80840024A102100F0B1B800BFFF
S1130AF0BD378634024B4FF40052C3F8CC20704704
S1130B000080084628B9054B4FF40052C3F8CC20A6
S1130B107047012801D1FFF7EDBF704700800844FA
S1130B2007B5074B8DF80700012218680DF107017E
S1130B3001F0EEFD0A200AF0A5FB03B05DF804FB0A
S1130B404010002007B5130E8DF80230130C8DF8F9
S1130B5000008DF803300020130A8DF801108DF881
S1130B6004308DF80520FFF7CDFF074B06221868E7
S1130B70694601F0CDFD0A200AF084FBFFF7BAFFB5
S1130B8003B05DF804FB00BF40100020F7B5184F18
S1130B908DF80400002015461E468DF805100C46FD
S1130BA0FFF7B0FF01A93868022201F0B1FD0A2065
S1130BB00AF068FBB44203DDFFF79CFF03B0F0BD0D
S1130BC055F8042B8DF80720130E8DF80430130C00
S1130BD08DF80530130A04220DEB020138688DF8F4
S1130BE0063001F095FD0A200AF04CFB0134E1E7E0
S1130BF04010002013B5154C8DF8000000208DF82E
S1130C000110FFF77FFF69460222206801F080FD92
S1130C100A200AF037FB04220DEB0201206801F0E0
S1130C205BFD0A200AF02EFBFFF764FF9DF80530F8
S1130C309DF804001B0403EB00639DF8060003EB1E
S1130C4000239DF80700184402B010BD4010002096
S1130C50F8B518292DED028B4FF0000408EE902A08
S1130C6034D0102934D0082934D11B4D08F050FC5D
S1130C7022462B4608F0F0FD08F07EFF08EE100A2D
S1130C8008F068FC154B06460F460022204629460C
S1130C9008F0B8FC124B002208F0FCFA02460B469E
S1130CA03046394608F02AFF48B922462B463046DA
S1130CB0394608F0EFFA08F05FFF08EE100A68EE14
S1130CC0287ABDEC028B17EE900AF8BD054DCDE7EE
S1130CD0054DCBE7054DC9E7000070400000E03F3B
S1130CE00000F03F000070410000F0400000F041BF
S1130CF030B5124C124B2268124D1A608BB0124B55
S1130D002B60124B009307F0E7FA2B680293104B09
S1130D100393104B0493104B05934FF4C8621923AB
S1130D20CDE9062300213223CDE908130190694659
S1130D30206806F05FFD0BB030BD00BF3C10002002
S1130D40142C0020102C00203010002040CB000078
S1130D50C41E0020FC1D00207812002038B503F0CA
S1130D6019FC1248124C012102F004FC0122114624
S1130D70002003F07BFB022501221146C4F88050B9
S1130D80002003F073FB01221146C4F884500020B4
S1130D9003F06CFB0122C4F88C501146002003F0D0
S1130DA065FBC4F88850002038BD00BF30053E0004
S1130DB000400E4008B54FF0804301225A6403F509
S1130DC064231E49D3F8B02042F00102C3F8B020D6
S1130DD0D3F8E02042F00802C3F8E0204A6B42F462
S1130DE080524A63D3F8E02022F00802C3F8E020DE
S1130DF0D3F8B02022F00102C3F8B020104AD2F890
S1130E00A43143F4F843C2F8A43107F011FA00F016
S1130E10BFF807F0A9F907F0F7F907F0BBF907F0F5
S1130E20C1F9FFF79BFF0BF0ADFA00F0A5F80AF04B
S1130E3092FCBDE8084004F0F1BD00BF004005404D
S1130E4000300E4030B51D4D0FCD97B00FAC0FC420
S1130E5095E807001A4B84E807001A4ACDE90323F2
S1130E60194B002110220BA8CDE90531CDE907115A
S1130E700BF0ABFB154B16484FF48811CDE9091361
S1130E8032238DF82C3033238DF82D30114B0C93F5
S1130E9020230D9301238DF839300F4B00930FAAB3
S1130EA003AB09A907F008FE044618B10B488621D4
S1130EB00AF05EFA204617B030BD00BF80CB0000B8
S1130EC000C2040000140140040804091C14014079
S1130ED02C2200204F2C00208421002052CB000023
S1130EE008B5FFF7AFFF28B1BDE8084002489A21D2
S1130EF00AF03EBA08BD00BF52CB0000014807F01B
S1130F0093BE00BF2C22002008B504480AF0ACFAB6
S1130F10BDE8084002480AF0A7BA00BF9CCB000015
S1130F20B4CB0000024B0349186801F061BA00BF5A
S1130F30401000204410002018B1034B186000201A
S1130F4070472520704700BF2C23002010B5054CA6
S1130F500549206801F092FD2068BDE81040FFF7C4
S1130F60EBBF00BF6010002064110020014B186823
S1130F70704700BF2C23002008B50448012102F06B
S1130F80F9FABDE808400AF08EB900BF00550A001E
S1130F900148012102F0EEBA00550A0013B50820F9
S1130FA00AF049FAFFF7E2FF01230E4C8DF80030F6
S1130FB090F8363020609BB9006804F0FBFA23688F
S1130FC093F8353020F07F4040EA83700190684602
S1130FD00AF097F9082002B0BDE810400AF037BAC9
S1130FE00020ECE73023002008B500F093F8124B02
S1130FF012498B4212D3124B124900208B4218D350
S1131000FFF78EFB186850F82240586840F82240D9
S1131010013298688242F5D30C33EAE70022F8E7FC
S11310201C6844F8220001325C68A242F8D30833F9
S1131030E4E70022F8E700BF4CDB000058DB0000C7
S113104058DB000058DB00000048704700A24A0447
S1131050174AD2F8943003F00703023B042B1FD83D
S1131060DFE803F00620031A0800124B1B680AE0AD
S1131070114BFBE79368C3F30443073B072B14D8D6
S11310800E4A52F823300A4AD2F80001C0F3042071
S11310900130B3FBF0F07047094B1B685B08F2E7C3
S11310A0074BE3E74FF40043EDE70023EBE700BF12
S11310B000400E40941100208C110020CCCB000085
S11310C09011002008B5FFF7C3FF054BD3F8083192
S11310D0C3F308230133B0FBF3F0024B186008BDDF
S11310E000400E4088110020014B1868704700BF73
S11310F08C110020054B1860054BD3F8943003F095
S11311000703022B01D1FFF7DDBF70478C110020CC
S113111000400E40044B054A9A60D3F8882042F4FC
S11311207002C3F88820704700ED00E00000000062
S1131130014B1868704700BF9411002038B504466D
S11311400D4601B118B9044837210AF011F9236892
S11311502B60256038BD00BFECCB000070B5D0B16A
S1131160C9B10E4E431E013913F8014FA25D02F0BE
S11311700302012A11F8012FB55C05F0030520468E
S113118008BF04F12000012D08BF2032801A01D1CC
S1131190002CE9D170BD0120FCE700BFAAD90000F2
S11311A005490A681318054883428CBF4FF0FF3283
S11311B00B601046704700BF981100200000082003
S11311C008B52948012102F0D5F90123042202219E
S11311D0052003F04FFF002003F0CCFE234B012237
S11311E0C3F810281146042003F040F9204802F007
S11311F0CDFE204BD3F8F02042F00102C3F8F020DA
S1131200D3F8FC2042F08072C3F8FC20A3F55D43C0
S1131210194A1A6000F5D520184B00F2FC40B0FBC7
S1131220F3F0174B013802221861C3F8F0204FF491
S11312308072C3F804234FF06043124AC3F8B02FFE
S1131240114AC3F8802ED3F8002E42F48072C3F8FA
S1131250002EFF2283F82020D3F8002E22F480727F
S1131260C3F8002E002008BD00550A00008010437A
S113127006000E0000ED00E0FF030040F8590D00E9
S1131280000004E055CEACC5090001004FF06043F6
S113129030B5D3F8802ED20715D501240B4D8440E8
S11312A0D5F8FC2042F08072C5F8FC20D3F8002E5B
S11312B02243C3F8002E53F82020002AF0D003F86C
S11312C02010002030BD1120FCE700BF00ED00E03D
S11312D0082838B504460D4604D84FF6FF73CB40B2
S11312E0DB0704D4084840F2FE310AF041F8302309
S11312F00C2013FB040000F18840012100F50820B4
S113130001FA05F5056038BD3ACC0000082838B567
S113131004460D4604D84FF6FF73CB40DB0704D4D4
S1131320084840F22D410AF023F830230C2013FB27
S1131330040000F18C40012100F5082001FA05F5B4
S1131340056038BD3ACC000010B5012104460948B7
S113135002F010F90848012102F00CF9A378207872
S11313606178B3FA83F35B09042203F083FE00205F
S113137010BD00BF4041050000550A0038B504788F
S11313804578082C04D84FF6FF73EB40DB0704D4F0
S113139007484FF4896109F0EBFF3023634303F1FD
S11313A08043012203F50823AA409A6138BD00BF97
S11313B03ACC000070B506784478082E054604D867
S11313C04FF6FF72E240D30704D40C484FF4836114
S11313D009F0CEFF30230C2213FB062303F106731E
S11313E003F5004304EBC304A400AB782068C0B247
S11313F013B9B0FA80F0400970BD00BF3ACC0000C8
S11314002DE9F04F9A46554B85B01B78DDF83C909A
S11314109DF844B0DDF8508006460F461546002B73
S113142000F08B80172A00F28A800E9B002B00F0BC
S11314308680B9F1000F00F08280129BB3F5006F33
S11314407DDC012802D1109B002B78D0444B03EBA8
S113145005131B7B002B74D0424C102200216846DC
S11314600BF0B3F804EB45141022002F57D1394682
S113147020460BF0AAF843F210036380BBF1000F7F
S113148003D1E37843F00303E370364A0E9BCDF8AF
S113149000A002EB451CCCE90193129B013BC3F372
S11314A00A009DF84C30690103F003039B0643EAEC
S11314B0001E53582C4818404EEA0003012E535086
S11314C041D11323CCF80C309CE80F000CF1100E22
S11314D08EE80F00DCF81C20109BCCF814306FF061
S11314E0030161F39F02012FCCF81C2003D1CCF837
S11314F01890CCF804301A4A290102EB051342F87B
S113150001800027159A5A6028469F605E73224620
S1131510694603F065FE384605B0BDE8F08F00214A
S113152020460BF052F84FF444736380BBF1000F74
S1131530ABD1E37843F03003A6E70C48ECE70C4862
S1131540EAE70C48E8E7B8F1000FD4D19CF8023080
S113155068F304138CF80230CDE700BF6F2C002031
S113156034230020B42400200F80FFF3028000F015
S1131570018000F0078000F038B5124B1B78054657
S1131580DBB1E0B10AF0AAF80F4A00231146147B3C
S113159054B92B601A0101EB031301258C501D7300
S11315A00AF0A2F8204638BD0133182B02F11002CC
S11315B0EDD10AF099F80548F5E70548F3E7054841
S11315C0F1E700BF6F2C002034230020048000F0DA
S11315D0028000F0018000F013B50AF07FF80C4A95
S11315E00023147B7CB90133182B02F11002F8D1CB
S11315F0019003F085FD074B01981C700AF074F804
S1131600204602B010BD0AF06FF80348F9E700BFA6
S1131610342300206F2C0020058000F00D4B1B7834
S113162010B5044693B1172812D80AF057F80A4B9C
S113163003EB04131A7B2AB100241C730AF054F838
S1131640204610BD0AF050F80448FAE70448F8E7C9
S11316500448F6E76F2C002034230020068000F0B5
S1131660028000F0018000F013B5134B186801905C
S113167000238DF804300AF031F8104B1C7824B1A3
S11316800AF032F80E4802B010BD01221A700AF0B6
S11316902BF80C4A234621460133182B117302F10F
S11316A01002F9D104230DEB03008DF8073003F089
S11316B057FD0020E7E700BF86CC00006F2C002018
S11316C0038000F0342300200A4A127808B55AB186
S11316D017280BD8084A02EB00131B7B43B10021E7
S11316E003F022FD002008BD0448FCE70448FAE7A3
S11316F00448F8E76F2C002034230020028000F017
S1131700018000F0078000F00A4A127808B55AB147
S113171017280BD8084A02EB00131B7B43B10121A5
S113172003F002FD002008BD0448FCE70448FAE782
S11317300448F8E76F2C002034230020028000F0D6
S1131740018000F0078000F00A4A127808B552B10F
S113175017280AD8084A02EB00131B7B3BB103F09D
S1131760C5FD002008BD0548FCE70548FAE7054823
S1131770F8E700BF6F2C002034230020028000F023
S1131780018000F0078000F00D4B1B7893B11728FF
S113179012D889B10B4B03EB00131B7B73B10A4BBB
S11317A01A6A012303FA00F010401ABF00200B70DC
S11317B008707047054870470548704705487047EA
S11317C06F2C00203423002000200040028000F011
S11317D0018000F0078000F00D4B1B7893B11728AF
S11317E012D889B10B4B03EB00131B7B73B10A4B6B
S11317F01A6E012303FA00F010401ABF00200B7088
S11318000870704705487047054870470548704799
S11318106F2C00203423002000200040028000F0C0
S1131820018000F0078000F00B4A127810B50C46D6
S113183062B117280CD859B1084A02EB00131B7B7C
S113184043B103F073FD2070002010BD0448FCE791
S11318500448FAE70448F8E76F2C002034230020FA
S1131860028000F0018000F0078000F02DE9F843C9
S1131870DFF86480D8F86070D8F86C301F4000D569
S1131880FEE7144CDFF8549001260025374217D0A8
S11318902368C8F868609BB1A16862680131A160DF
S11318A028469847637B012B0AD148B909EB4513B5
S11318B01A7B60F341021A731A7F60F341021A77AC
S11318C00135182D4FEA460604F11004DED1BDE8B7
S11318D0F88300BF3423002000200040B4240020FB
S11318E070B50C4E0446012504B970BD94FAA4F0F9
S11318F0B0FA80F006EB001205FA00F324EA0304C0
S11319005368002BF0D0117B11B191689847EBE735
S11319109847E9E7B427002008B50D2002F00CFF32
S113192028B1084B4FF40052C3F880211A600320F9
S113193002F002FF20B1034B0822C3F880211A6091
S113194008BD00BF00E100E038B505460C4609F0CB
S1131950C5FE054B03EB051300225C601A73BDE85A
S1131960384009F0C1BE00BFB4270020054BD3F8AE
S11319702804D3F81C24104000F05530C3F8240484
S1131980FFF7AEBF00800840054BD3F82804D3F816
S11319901C24104000F0AA30C3F82404FFF7A0BFB1
S11319A0008008400368644A934230B540F0C68022
S11319B0027A012A40F28380022A00F08480032AFA
S11319C07DD0042A7DD0052A7DD0062A0CBF0623AB
S11319D0FF230B70437A012B77D9022B79D0032B89
S11319E073D0042B73D0052B73D0062B0CBF0624A5
S11319F0FF248C70847A012C6DD9A51E012D6CD91D
S1131A00042C6CD0052C6CD0062C0CBF0625FF25AD
S1131A100D71C07A012866D9851E012D65D9042867
S1131A2065D0052865D006280CBF0625FF258D71D5
S1131A30002A60D0012A64D0022A5ED0032A5ED034
S1131A40042A5ED0052A5ED0062A0CBF0C22FF228F
S1131A504A70002B59D0012B59D0022B59D0032B9B
S1131A6059D0042B59D0052B59D0062B0CBF0D236C
S1131A70FF23CB70002C5CD0012C52D0022C52D00E
S1131A80032C52D0042C52D0052C52D0062C0CBF5F
S1131A900E23FF234B71002800F0C583012800F0BA
S1131AA09882022800F02181C31E012B40F2BD83DD
S1131AB0052800F0B883062808BF0F23D0E00423CC
S1131AC087E7012385E7022383E7042491E70124C0
S1131AD08FE702248DE704259AE7022598E701257C
S1131AE096E7002594E70425A1E702259FE7012551
S1131AF09DE700259BE70A22AAE70B22A8E70D220F
S1131B00A6E70722A4E70022A2E70B23B1E70623F6
S1131B10AFE70A23ADE70C23ABE70823A9E70123CA
S1131B20A7E70523B6E70923B4E70F23B2E70D239C
S1131B30B0E70C23AEE700BF000001406E4A9342B9
S1131B4040F0DC80047A002C00F09180631E012BAD
S1131B5040F28980032C00F08880042C00F08780F8
S1131B60052C00F08680A31F18BF4FF0FF33DBB2B3
S1131B700B70457A002D00F082806B1E012B7AD900
S1131B80032D7AD0042D7AD0052D7AD0AB1F18BF3F
S1131B904FF0FF33DBB28B70827A002A79D0012AAE
S1131BA071D0022A71D0D31E012B70D9052A70D0AE
S1131BB0062A0CBF0423FF230B71C37A002B6AD0BF
S1131BC0012B6AD0022B6AD0D81E012869D9052BB3
S1131BD069D0062B14BFFF200120012C887164D921
S1131BE0022C64D0032C64D0042C64D0052C64D063
S1131BF0062C0CBF0E20FF20012D48705FD9022D4A
S1131C005FD0032D5FD0042D5FD0052D5FD0062D4E
S1131C100CBF0220FF20C870002A5AD0012A5AD0D3
S1131C20022A5AD0032A5AD0042A5AD0052A5AD052
S1131C30062A0CBF0522FF224A71002B55D0012B26
S1131C4000F06A82022B54D0032B00F0EE82042BA6
S1131C5000F0C181052B00F0BC81062B08BF0223D4
S1131C6018BFFF2342E0032382E7052380E7022312
S1131C707EE723467CE703238DE705238BE70223D6
S1131C8089E7002387E7032396E7052394E70223E4
S1131C9092E7012390E701209FE703209DE70520B9
S1131CA09BE7022099E7042097E70020A4E7072098
S1131CB0A2E70620A0E701209EE702209CE701207E
S1131CC0A9E70620A7E70720A5E70220A3E700204D
S1131CD0A1E70722B0E70222AEE70022ACE70F2219
S1131CE0AAE70322A8E70B22A6E70823CB7100206A
S1131CF030BD0123FAE700BF00040140604A93426B
S1131D0040F0C080027A002A75D0012A75D0931E53
S1131D10012B74D9042A74D0052A14BFFF23052388
S1131D200B70457A002D6ED0012D6ED0AB1E012BA9
S1131D306DD9042D6DD0052D14BFFF2305238B70A1
S1131D40847A002C67D0012C67D0A31E012B66D99E
S1131D50042C66D0052C14BFFF2305230B71C37A12
S1131D60002B60D0012B62D0022B5ED0032B5ED0FF
S1131D70042B5ED0052B14BFFF2005208871002A98
S1131D8059D0012A59D0022A59D0032A59D0042AF9
S1131D9059D0053A18BF4FF0FF32D2B24A70002D25
S1131DA053D0012D53D0022D53D0032D53D0042DE5
S1131DB053D0052D0CBF0122FF22CA70002C4ED037
S1131DC0012C4ED0022C4ED0032C4ED0042C4ED0DD
S1131DD0052C0CBF0222FF224A71002B00F09A81CD
S1131DE0012B46D0022B46D0032B46D0042B00F007
S1131DF09581052B34E7022392E7134690E70023ED
S1131E008EE705238CE7022399E72B4697E7002307
S1131E1095E7052393E70223A0E723469EE70023E3
S1131E209CE705239AE70220A8E70020A6E7012003
S1131E30A4E70520A2E70222B0E70322AEE70722C7
S1131E40ACE70D22AAE70622A8E70322B5E704229D
S1131E50B3E70822B1E70E22AFE70722ADE7042279
S1131E60BAE70522B8E70922B6E70F22B4E7082249
S1131E70B2E706233AE70A2338E70B2336E700BF25
S1131E8000080140944A934240F0A780037A002B53
S1131E906FD0012B6FD0022B6FD0DA1E012A6ED9BE
S1131EA0052B0CBF0822FF220A70457A002D68D04A
S1131EB0012D68D0022D68D0EA1E012A67D9052DAC
S1131EC00CBF0822FF228A70847A002C61D0621E23
S1131ED0012A60D9E21E012A5FD9052C0CBF082211
S1131EE0FF220A71C27A002A59D0012A59D0901EC1
S1131EF0012858D9042A58D0052A0CBF0820FF20ED
S1131F0088715BB1012B54D0022B50D0032B50D0DD
S1131F10042B50D0052B0CBF0C23FF234B70002D3A
S1131F204DD06B1E022B48D9042D48D0052D0CBF73
S1131F300D23FF23CB70002C49D0012C41D0022C5F
S1131F4041D0032C41D0042C41D0052C0CBF0E23CE
S1131F50FF234B71002A00F0DF80012A39D0022AC6
S1131F6000F06381032A36D0042A00F0D580052AC4
S1131F70A2E51A4698E7042296E7012294E706228E
S1131F8092E72A469FE704229DE701229BE7062267
S1131F9099E72246A5E70322A3E70622A1E7104614
S1131FA0AEE70420ACE70220AAE70620A8E7032353
S1131FB0B4E70623B2E70023B0E70723BAE7012317
S1131FC0B8E70723C5E70423C3E70823C1E70223CF
S1131FD0BFE704238AE6002388E6404A934240F0A0
S1131FE09F80037A002B63D0012B63D09A1E012AB1
S1131FF062D9042B0CBF0722FF220A70447A002CFA
S11320005CD0012C5CD0A21E012A5BD9042C0CBF2D
S11320100722FF228A70827A002A55D0012A55D0DD
S1132020951E012D54D9042A0CBF0725FF250D71D7
S1132030C07A00284ED0012852D0851E012D51D9D6
S113204004280CBF0725FF258D71002B4CD0012BD4
S11320504CD0022B4CD0032B4CD0042B18BFFF23A5
S11320604B70002C48D0012C48D0022C48D0032CB3
S113207048D0042C0CBF0523FF23CB70002A43D087
S1132080012A43D0022A05D0032A41D0042A0CBFD6
S11320900622FF224A7100283CD0012800F0C780A4
S11320A0022839D0032839D0042808BF0723D7E5EC
S11320B00122A2E70322A0E708229EE70122A9E762
S11320C00322A7E70822A5E70225B0E70325AEE728
S11320D00825ACE70225B7E7000C014000100140D9
S11320E00325B1E70825AFE70723B9E70923B7E7D5
S11320F00023B5E70623B3E70823BEE70A23BCE7BA
S11321000123BAE70723B8E70422C3E70B22C1E798
S11321100822BFE70523E9E50323E7E50923E5E50D
S1132120454A934240F08580047A002C53D0012C18
S113213053D0022C53D0032C0CBF0723FF230B7066
S1132140427A002A4DD0012A4DD0022A4DD0032ACA
S11321500CBF0723FF238B70857A002D47D0012DF8
S113216047D0022D47D0032D0CBF0723FF230B714B
S1132170C37A002B41D0012B41D0022B41D0032B39
S11321800CBF0720FF208871002C3CD0012C3CD0D0
S1132190022C3CD0032C0CBF0A20FF204870C2B391
S11321A0012A38D0022A38D0032A0CBF0B22FF227E
S11321B0CA70A5B36A1E012A33D9032D0CBF0C22A1
S11321C0FF224A717BB3012B2FD0022B2FD0032B7C
S11321D008BF0D2344E50423B1E70023AFE705233B
S11321E0ADE70423B7E70023B5E70123B3E70123F1
S11321F0BDE70323BBE70523B9E70120C3E70320B9
S1132200C1E70520BFE70820C8E70620C6E70F207E
S1132210C4E70922CCE70722CAE70122C8E70B2258
S1132220CFE70D22CDE70D2360E50E235EE50C23F9
S11322305CE502485CE500BF00140140022000F0A8
S113224038B5144609F04AFA0023636484F8483028
S1132250E363237E012B054603D104F15C0006F001
S11322602BFE236B1BB1A26B002120469847284606
S113227009F03AFA636D002B03DC0448BB2109F032
S113228077F8636D013B6365012038BD8ACC00009B
S113229038B50546B0B1B9B1B2B1B2F5006F13DCCF
S11322A009F01CFA95F8483003F0FF041BB109F05B
S11322B01BFA064838BD012385F8483009F014FAA2
S11322C02046F7E70248F5E70248F3E7032000F069
S11322D0012000F0022000F0F0B5036390F85830BC
S11322E01746002287B0044680F85020876333BB2A
S11322F0066905684FF44063092EEB6021D905F1A6
S1132300240301263C35626D606A049401326265DF
S1132310124A0197CDE90262012200920A46E16A5B
S113232009F0D1F80023CDE903330093CDE9017618
S1132330A16A206A04F114032A4609F0AAF807B036
S1132340F0BDA6F109020BBF05F1180305F11C034A
S11323503035343556425641D5E700BF412200009E
S11323602DE9F043036390F858301746002287B0F4
S11323700446884680F85020876343BB0669056895
S11323804FF44063092EEB6024D905F124030126A0
S11323903C35626DE16A606A049401326265134AF5
S11323A001974FF00009CDE90262CDF8009004F1E5
S11323B0340209F088F801230093CDE90399CDE9AB
S11323C00176A16A206A43462A4609F062F807B0FA
S11323D0BDE8F083A6F109020BBF05F1180305F16E
S11323E01C033035343556425641D2E741220000B1
S11323F0F0B5A04F04460D460FCF8DB005AE0FC605
S113240097E8070086E80700002C00F031811DB929
S1132410994D28460DB0F0BD8022002120460AF0D7
S1132420D4F82B68954A934240F0B280944AE2640F
S1132430944AA2624FF4402226462F46E26246F8AE
S1132440043B0FCF0FC697E8070086E807006B7DB3
S1132450012B08BF8DF82230AB7D33B1012B40F046
S1132460CA804FF40073ADF824302B7D8648012BCD
S11324700ABF0023AB688DF821304FF0010108BF7B
S11324804FF4E133079301F075F88048012101F01E
S113249071F8E06C012101F06DF8EB681A1F0C2A49
S11324A0B6D8033B05A928688DF8203003F0BCF9A1
S11324B06B69216823F47F0323F47F431BB90B6802
S11324C043F480330B60AA792B796879EE7D120688
S11324D042EA032303438A6F002E40F0978002F000
S11324E0F8321343EA7943EA02438B670F234B67BD
S11324F0204603A9FFF756FA0546002889D19DF81E
S1132500123084F840309DF8133084F84130237E33
S11325109DF80C009DF80D10002B7FD1042201932F
S113252002F0A8FD019B9DF80F109DF80E000122FA
S113253002F0A0FDA27E9DF811109DF81000012A62
S113254094BF019B0123042202F094FDE37E3BB976
S11325500123042294F8411094F8400002F08AFD0B
S113256009F0BCF84A4B1A78002A75D101221A7076
S113257009F0BAF806F066FCFFF776F8002104F1DA
S11325802000FEF7F9FF0146002868D0414D40E7DE
S1132590414A934206D1414AE264414AA2624FF45D
S11325A0502249E73F4A934206D13F4AE2643F4AF8
S11325B0A2624FF460223FE73D4A934206D13D4A6E
S11325C0E2643D4AA2624FF4702235E73B4A9342EB
S11325D006D13B4AE2643B4AA2624FF480122BE7E5
S11325E0394A93427FF414AF384AE264384AA2620B
S11325F04FF4881220E7022B02D14FF4807332E7A4
S1132600032B7FF405AF4FF440732CE722F007222D
S113261022F0070213438B670B2368E72B46012242
S113262002F028FD9DF80F109DF80E002B460422A1
S113263002F020FDA37E9DF811109DF81000012BDF
S113264094BF2B460123022202F014FDE37E002BEB
S113265086D1012302227DE709F046F88CE704F1D4
S11326602400FEF789FF054600283FF4D2AE8DE72B
S1132670184DCEE6DCCC0000022000F00000014042
S11326800072040001000C004041050000550A00DE
S1132690702C0020092000F0000401400082040096
S11326A001000D00000801400092060001000E0028
S11326B0000C014000A2040001000F0000100140C2
S11326C000B20400010010000014014000C2040024
S11326D001001100012000F070B5037E012B0446B7
S11326E00D4616460DD0FFF7D3FD48B9064B3246CA
S11326F029462046FFF7F0FD204608F003FF606CF2
S113270070BD0248FCE700BFFBB40000082000F0E5
S113271070B5037E012B04460D4616460DD0FFF717
S1132720B7FD48B9064B324629462046FFF718FE46
S1132730204608F0E7FE606C70BD0248FCE700BF6D
S1132740FBB40000082000F038B141B1013AB2F501
S1132750006F044838BF00207047034870470148A1
S1132760704700BF037000F0027000F0082838B50D
S113277004460D4604D84FF6FF73CB40DB0704D460
S1132780084840F2FE3108F0F3FD30230C2013FB1F
S1132790040000F18840012100F5082001FA05F544
S11327A0056038BD3ACC0000082838B504460D460B
S11327B004D84FF6FF73CB40DB0704D4084840F23B
S11327C02D4108F0D5FD30230C2013FB040000F14B
S11327D08C40012100F5082001FA05F5056038BD9B
S11327E03ACC00001049114A0B7830B52BB9C2E934
S11327F00033C2E9023301230B700C4C0023214641
S113280051F8045B854208D00133042BF8D1002130
S113281054F8043B1BB942F82100002003E00131C5
S11328200429F5D1024830BD712C0020B4290020C0
S1132830027000F038B590F83530022B1CD1457F7A
S113284090F82140082D04D84FF6FF72E240D307D8
S113285004D40A4840F2CF3108F08AFD30231C2208
S113286013FB052303F1067303F5004304EBC304D0
S1132870A4002068C0B238BD0020FCE73ACC0000B8
S113288013B51E4A002352F8044B94F821108142D8
S11328900ED00133042BF6D102B010BD0028FBD1B9
S11328A09DF80730002BF7D0A068FEF70DFFF3E783
S11328B094F83530022BEFD12046FFF7BBFF637E3F
S11328C02076022BE8D194F8323003F0FF02002B7B
S11328D0E2D1A0688DF807200DF10701FEF754FF3F
S11328E0237E1BB194F83330002BD7D00023A0688B
S11328F084F83330FEF708FFCEE700BFB429002088
S113290010B50446FEF7B0FE002104F10800FEF7FE
S113291033FE014620B904F10C00FEF72DFE00B190
S1132920004810BD0E7000F02DE9F04104469046B9
S1132930FFF70AFF0F460546002862D1022001F086
S113294015FF0646E26A93889BB213B194F83230BD
S113295033B394F8363043BB23681E6906F002068D
S11329601EB9204608F050FE0026012384F83430B6
S113297094F836304BBBB8444745206820D10369EE
S11329809A06FCD5002E3CD194F8363063BB2368FC
S11329905A6F22F002025A670822DA60354630E0A4
S11329A0002ED0D0FEF762FFCCE7012B02D12368C2
S11329B09E68D3E7144840F6432108F0D9FCD0E7D9
S11329C017F8011B08F0C2FED6E7012BDAD1B84490
S11329D0B845206803D183681B07FCD5D2E717F8F4
S11329E0011B08F0A9FEF3E7012BD7D123685D6C26
S11329F015F00205FBD15A6D22F002025A65082235
S1132A005A602846BDE8F081F8CC000010B50446B1
S1132A1080B190F832302BB9FFF70CFF10B9A068E1
S1132A20FEF752FE94F832300133DBB284F83230D0
S1132A30002010BD0048FCE7027000F010B5044609
S1132A40A0B190F832309BB190F83230012B05D10F
S1132A50FFF7F0FE10B9A068FEF756FE94F8323086
S1132A60013BDBB284F83230002010BD0148FCE7A2
S1132A700148FAE7027000F0057000F0F0B5904FDD
S1132A8004460D460FCF89B001AE0FC697E8070084
S1132A9086E80700002C00F000841DB9894E3046FA
S1132AA009B0F0BD60220021204609F08EFD2046C9
S1132AB0FFF798FE06460028F1D12B7C84F83530C8
S1132AC02B68814A2360934284F8360040F09B804F
S1132AD07E4B63627E4B23614FF440236361D5E9EF
S1132AE006230027A26217805780978084F83070ED
S1132AF0E3621F805F809F806B6803936B8984F817
S1132B00317084F83370ADF81430AB89ADF81230FD
S1132B10AB7B70488DF810300121EB7B8DF81630BB
S1132B2005268DF8116000F025FD6B48012100F0A9
S1132B3021FD606A012100F01DFD28688DF80470F4
S1132B4001A902F009FE2868697A826F2B7ADFF8FE
S1132B5078C122F4E06222F007020A4342EA032227
S1132B608267032242672068604540F02181012B7F
S1132B7040F29080022B00F09180934200F08A8012
S1132B80042B00F08980B34200F08880062B0CBF30
S1132B900622FF220129E27640F28280022900F017
S1132BA0838003297CD004297CD005297CD0062984
S1132BB00CBF0622FF222277002B77D0012B7BD07B
S1132BC0022B75D0032B75D0042B75D0052B75D033
S1132BD0062B0CBF0C23FF23E377002900F0A88009
S1132BE0012900F04581022900F03A82032900F00E
S1132BF0DD80042900F03282052900F07382062961
S1132C0008BF0D2319E1354A934206D1344B636260
S1132C10344B23614FF4502360E7334A934206D187
S1132C20324B6362324B23614FF4602356E7314ADF
S1132C30934206D1304B6362304B23614FF47023CF
S1132C404CE72F4A934206D12E4B63622E4B2361ED
S1132C504FF4801342E72D4A934206D12C4B636212
S1132C602C4B23614FF4881338E72B4A934206D147
S1132C702A4B63622A4B23614FF490132EE7294AAF
S1132C8093427FF40BAF284B6362284B23614FF4CC
S1132C90981323E704227DE701227BE7022279E7E8
S1132CA0042288E7012286E7022284E70A2393E7C5
S1132CB00B2391E70D238FE707238DE700238BE791
S1132CC04CCD0000037000F00000014000720400CD
S1132CD001000C004041050000550A0000040140B9
S1132CE00082040001000D0000080140009206006B
S1132CF001000E00000C014000A2040001000F00BE
S1132D000010014000B20400010010000014014052
S1132D1000C204000100110000400140004E040004
S1132D200100120000440140005E04000100130091
S1132D300B2384F820306B7C6377AB7C84F82130E0
S1132D40EB7CA3772B7D84F822300121204608F008
S1132D50EBFB064600287FF4A2AE08F0BFFC2B7CF8
S1132D60032B074640F087822B682A8CDA675A6E59
S1132D7042F004025A665A6F42F030025A672868D9
S1132D804FF0FF3383642B7C032B0CBF05210421FC
S1132D9002F05AFC2B684FF44062DA602046FFF7D9
S1132DA0AFFD0646384608F09FFC78E60C23C0E7E2
S1132DB0DFF800C5604561D1002B43D0581EC0B276
S1132DC001280AD9032B3BD0042B3BD0052B3BD045
S1132DD09A1F18BF4FF0FF32D2B2E276002939D0E1
S1132DE04A1E012A32D9032932D0042932D00529B6
S1132DF032D08A1F18BF4FF0FF32D2B2012B227794
S1132E002CD9022B2CD0032B2CD0042B2CD0052B0B
S1132E102CD0062B0CBF0E23FF230129E37740F2AD
S1132E206181022924D0032900F05A81042921D088
S1132E30052921D0062908BF022318BFFF2378E7FC
S1132E403246CAE70222C8E71A46C6E70322D5E794
S1132E500522D3E70222D1E70022CFE70023DCE7F3
S1132E600723DAE70623D8E70123D6E70223D4E7CA
S1132E7006235EE702235CE700235AE7DFF838C441
S1132E80604559D1002B37D0012B37D09A1ED2B2CE
S1132E90012A35D9042B35D0052B14BFFF22052276
S1132EA0E27689B3012931D08A1E012A30D9042956
S1132EB030D0052914BFFF220522227763B3012BEA
S1132EC02CD0022B2CD0032B2CD0042B2CD0053B44
S1132ED018BF4FF0FF33DBB2E37739B3012927D0B2
S1132EE0022900F0BB80032924D0042900F0F880D3
S1132EF0052908BF0123A0E70222D1E71A46CFE73C
S1132F003A46CDE73246CBE70222D6E70A46D4E773
S1132F100022D2E70522D0E70223DDE70323DBE723
S1132F200723D9E70D23D7E70623D5E7032300E7D3
S1132F300423FEE60E23FCE6DFF880C360454AD195
S1132F409BB3012B33D0022B33D0DA1ED2B2012A29
S1132F5031D9052B0CBF0822FF22E27669B301297F
S1132F602DD002292DD0CA1E012A2CD905290CBF27
S1132F700822FF2222775BB1012B28D0022B24D018
S1132F80032B24D0042B24D0052B0CBF0C23FF23AC
S1132F90E377002900F0A6804B1E022B40F2A080AC
S1132FA0042900F09F8005292AE61A46D5E7042261
S1132FB0D3E70122D1E70622CFE70A46DAE7042263
S1132FC0D8E70122D6E70622D4E70323E0E7062365
S1132FD0DEE70023DCE7DFF8E8C2604542D15BB3FB
S1132FE0012B07D09A1ED2B2012A27D9042B0CBF79
S1132FF00722FF22E27619B3012923D08A1E012A6F
S113300022D904290CBF0722FF222277F3B1012B16
S11330101ED0022B1ED0032B1ED0042B18BFFF235F
S1133020E377D9B101291BD002295BD0032957D0FA
S1133030042908BF052300E70122DBE70822D9E7BA
S11330400122E2E70322E0E70822DEE70723E7E7BD
S11330500923E5E70023E3E70623E1E7082368E61D
S11330600A2366E68E4A90423ED12BB3012B25D02B
S1133070022B25D0032B0CBF0722FF22E27609B3D3
S1133080012921D0022921D003290CBF0722FF22C4
S11330902277EBB1012B1DD0022B1DD0032B0CBFCB
S11330A00A23FF23E377C9B1012919D0022919D0D2
S11330B0032908BF0B23C0E60422DFE73A46DDE715
S11330C03246DBE70422E3E70022E1E70122DFE7FF
S11330D00823E7E70623E5E70F23E3E7092328E6C8
S11330E0072326E6012324E66E4A90426BD1002B87
S11330F03FD0012B3FD0022B3FD0DA1ED2B2012A9F
S11331003DD9052B3DD0062B0CBF0322FF22E276CE
S1133110002938D0012938D0022938D0CA1E012A02
S113312037D9052937D0062914BFFF220422227774
S11331309BB3012B33D0022B33D0032B33D0042B7E
S113314005D0052B31D0062B0CBF0723FF23E377D3
S113315069B301292CD002292DD003292DD00429AB
S11331602DD005292DD0062908BF042118BFFF2121
S11331701EE03246CBE70422C9E70022C7E7022259
S1133180C5E71A46C3E70522D1E70422CFE70022A8
S1133190CDE70222CBE70A46C9E70623D7E7002397
S11331A0D5E70323D3E70E23D1E70123CFE7072194
S11331B084F82010BFE50421FAE70F21F8E7052180
S11331C0F6E70221F4E7384A90427FF467ACA3B3F0
S11331D0012B34D0022B34D0DA1ED2B2012A32D9D8
S11331E0052B0CBF0722FF22E27671B301292ED0F2
S11331F002292ED0CA1E012A2DD905290CBF072267
S1133200FF2222777BB3012B27D0022B27D0032B5D
S113321027D0042B27D0052B0CBF0B23FF23E377E8
S113322039B3012921D0022921D00329C0D004298E
S11332301FD0052908BF0C2198E70222D4E70522F4
S1133240D2E70122D0E70422CEE70222D9E7052201
S1133250D7E70122D5E70422D3E70A23DFE70923CE
S1133260DDE70223DBE70C23D9E70B21A0E70A21E2
S11332709EE70D219CE7022B7FF481AD94F8210099
S11332800A49FEF761FBFEF747FB4FF40073238303
S1133290A676204608F0D6F971E5054EFFF7FFBB88
S11332A00014014000400140004401408128000016
S11332B0027000F00004014000080140000C0140CD
S11332C0001001400C4B984210D90C4B984210D975
S11332D0022201230A490B640A49D1F8003123F080
S11332E0407343EA0263C1F8003170470022134679
S11332F0F0E70122FBE700BF0048E8010090D0039B
S11333000000C84300400E40314B98424FD023D8B0
S1133310304B984243D015D82F4B98423BD00AD813
S11333202E4B984233D02E4B984230D02D4B98429E
S11333302DD0002070472C4B9842FAD12B4BD3F858
S1133340480170472A4B98422DD02A4B9842F0D11D
S1133350264BD3F858017047274B98422FD009D8F1
S1133360264B984227D0264B9842E2D11F4BD3F8E4
S113337064017047234B984225D003F5F40303F509
S113338090539842D5D1194BD3F870017047174B1D
S1133390D3F830017047154BD3F83C017047134BF9
S11333A0D3F84C017047114BD3F8500170470F4BC1
S11333B0D3F85C0170470D4BD3F8600170470B4B99
S11333C0D3F868017047094BD3F86C01704700BF0C
S11333D00048E8010024F400C0CF6A0080841E0085
S11333E000093D0040420F00405DC6000081E00F2F
S11333F0C0EA210180BA8C01007E560380D54302C5
S1133400006CDC020090D00338B54FF080430022FA
S11334105B68104BC9B21C461D798D4202D11D68F0
S1133420854213D20132072A03F10803F4D10A4872
S113343041F2DD7107F09CFF03224FF080414B689D
S113344023F0407343EA02634B6038BD04EBC202CD
S11334505279F2E798CE000078CD00001F2810B50D
S1133460044604D903484FF4B67107F081FF0120E4
S1133470A04010BDC3CD0000044BDB6B5B0604D43D
S1133480034AD2F8C830002BFBD1704700300E40FD
S11334900000C64308B5FFF7EFFF024B5868C0F3BE
S11334A0014008BD00300E40044BD3F84421D2073C
S11334B003D4D3F840211042FBD1704700400E40A2
S11334C0B0F5004F38B5054604D30C4840F64A61C0
S11334D007F04EFF6C1C14BFB4FA84F42024C4F12A
S11334E01F042046FFF7BAFF0138A84204D003485E
S11334F040F6516107F03CFF204638BD12CE000073
S11335004FF0804341F6713270B51E6C1A64054663
S11335100C46FFF779FF134A134B022C08BF1346DE
S11335209D42124AB6B209D94FF08C43C3F8002128
S11335300F4A954207D84FF0884306E04FF088437E
S1133540C3F80021F7E7002CF5D14FF480521A603C
S113355041F671339E421EBF4FF0804300221A642D
S113356070BD00BF0024F40080D5430202020200B3
S113357080F0FA02C0F30322013A38B503460E2A5A
S11335803AD8DFE802F040433939081B1E212536BA
S1133590292E391833001F4C0020C3F3043508B119
S11335A0FFF782FF04F1424404F5801405EBC404E0
S11335B0A400216038BD184C0020EEE7174C012010
S11335C0EBE7174C1020E8E7164C4FF48070E4E763
S11335D0154C4FF48030E0E7144C81F001010020D9
S11335E0DBE7134C81F001010020D6E7114C0020E9
S11335F0D3E7114C0020D0E7BDE838400F4841F62E
S1133600795107F0B5BE0E4C0020C6E70D4C0020E2
S1133610C3E700BFB0400E40C4400E40E0400E403F
S1133620E8400E40EC400E40F0400E4060410E4039
S113363064410E40F0410E4050410E4078CD0000F0
S113364000400E40C0400E4008B5C0F30313013BD8
S11336500B2B00F2AB80DFE803F0060C101A2024D9
S1133660282C668692A5534BD3F80001C0F304209E
S113367008BD504BD3F81401F8E74E4BD3F80001C2
S1133680C0F301600130FFF7E9FE0138F0E7494B70
S1133690D3F80C01C0F30820EAE7464BD3F818012D
S11336A0F8E7444BD3F81C01F4E7424BD3F8080184
S11336B0F0E7414B98422AD00ED8A3F5BA2398429A
S11336C02BD003F57033984215D041F61D713B4859
S11336D007F04EFE0020CBE7394B984205D0394B1A
S11336E098420ED0384B9842EFD1324BD3F8200198
S11336F0C0F30230C7E72F4BD3F8200100F00F00CE
S1133700C1E72C4BD3F82001C0F30120BBE7294BC0
S1133710D3F82001C0F30310B5E7264BD3F82001FA
S1133720C0F30340AFE7294B98420CD003F5A11333
S113373098420ED0264B984212D11E4BD3F8280142
S113374000F003009FE71B4BD3F82801C0F30110DE
S113375099E7184BD3F82801C0F30130043092E7FD
S113376041F64171B3E71B4B984205D1114BD3F895
S1133770300100F003007BE741F65071A7E7164BD8
S1133780984205D0154B984206D041F668719EE7E1
S1133790084BD3F85C01ECE7064BD3F85C01C0F3AB
S11337A0014065E7034BD3F8040173E741F67571F3
S11337B08DE700BF00400E408016180078CD000051
S11337C000362C0080262E0080002A0090171C0052
S11337D090071A00A0091400B8003200B9003400A0
S11337E0C0F30313013B10B50C460B2B00F21882F7
S11337F0DFE813F00C00340045006000740088001A
S11338009C00BC006101CE01DA0102021F2904D927
S1133810C44841F69E7107F0ABFD07F041FFC24872
S1133820FFF750FD00F00AFAC04BD3F8001121F461
S1133830F85141EA0424C3F80041FDF743FC04466F
S1133840FFF728FE01462046FFF75AFEFDF700FC6D
S1133850FFF738FDBDE8104000F006BA1F2904D96F
S1133860B04841F6B47107F083FDB04BD3F814119E
S113387021F4F85141EA0424C3F8144110BD4B1E4D
S1133880B3F5004F0DD2B4FA84F1A84BD3F800413C
S1133890C1F11F0124F0407444EA0164C3F80041FB
S11338A0ECE7A34840F65A5107F062FD002CEAD138
S11338B02021EAE7B1F5007F04D39A4841F6C171AB
S11338C007F056FD994BD3F80C1121F4FF3121F484
S11338D0807141EA0421C3F80C11CFE7B1F5007FF0
S11338E004D3904841F6C87107F042FD8F4BD3F8DA
S11338F0181121F4FF3121F4807141EA0421C3F845
S11339001811BBE7B1F5007F04D3864841F6D071A6
S113391007F02EFD854BD3F81C1121F4FF3121F45F
S1133920807141EA0421C3F81C11A7E7B1F5007FB7
S113393004D37C4841F6D77107F01AFD07F0B0FEB6
S11339407A4BD3F8081121F4FF3121F4807141EA54
S11339500421C3F80811FDF7B5FB0446FFF79AFDEF
S113396001462046BDE81040FFF7CABD714B98429E
S113397074D010D8704B984246D0704B984257D0B0
S1133980A3F57033984226D042F25301BDE81040AB
S1133990644807F0EDBC6A4B984205D0694B9842E5
S11339A073D0694B9842EFD1B4F5004F04D95D4808
S11339B042F2450107F0DCFC2046FFF781FD014699
S11339C00420FFF771FD594AD2F8203123F4E04373
S11339D043EA013315E0B1F5004F04D9514841F6EB
S11339E0E97107F0C5FC2046FFF76AFD0146042093
S11339F0FFF75AFD4D4AD2F8203123F4702343EAED
S1133A000143C2F8203139E7022904D941F6FA7199
S1133A10444807F0ADFC4FF48020FFF745FD434BCD
S1133A20D3F8301121F003010C43C3F8304125E7EA
S1133A30B1F5004F04D93B4842F2170107F098FC56
S1133A402046FFF73DFD01460420FFF72DFD374AD0
S1133A50D2F8203123F00F030B43D2E7B1F5004F26
S1133A6004D9304842F2260107F082FC2046FFF7D1
S1133A7027FD01460420FFF717FD2C4AD2F8203118
S1133A8023F0F00343EA0113BBE7082904D92548CE
S1133A9042F2350107F06CFC2046FFF711FD0146A8
S1133AA00420FFF701FD214AD2F8203123F44073AA
S1133AB043EA0123A5E7254B98421DD003F5A11342
S1133AC0984247D0224B98425FD1082904D915481F
S1133AD042F25C0107F04CFC2046FFF7F1FC014682
S1133AE04020FFF7E1FC114AD2F8283123F0030308
S1133AF00B43C2F82831C1E6082904D9094842F227
S1133B006B0107F035FC2046FFF7DAFC0146402044
S1133B10FFF7CAFC054AD2F8283123F0300343EA00
S1133B200113E6E778CD00000148E80100400E40AB
S1133B3012CE000080161800A0091400800616009A
S1133B4000362C0080262E0080002A0090171C00CE
S1133B5090071A00A1F10F03702B04D9324842F2E6
S1133B607A0107F005FC2046FFF7AAFC0146402035
S1133B70FFF79AFC2D4AD2F82801043920F440506A
S1133B8040EA0130C2F8280178E642F28901FDE6F4
S1133B90274B984205D102297FF63DAF42F29301AB
S1133BA036E742F2A301F1E6224B984205D0224BBC
S1133BB0984212D042F2BC01E8E6032904D91A481B
S1133BC042F2AE0107F0D4FB184BD3F85C1121F09C
S1133BD003010C43C3F85C4150E6032904D912489D
S1133BE042F2B60107F0C4FB104BD3F85C1121F488
S1133BF0403141EA0444EDE7B1F5007F04D30A48BB
S1133C0042F2C40107F0B4FB084BD3F8041121F4C9
S1133C10FF3121F4807141EA0421C3F804112DE637
S1133C2042F2CB01B2E600BF78CD000000400E4066
S1133C30A0091400B8003200B900340008B50748E0
S1133C400321FFF7CDFD06480321FFF7C9FDBDE8B9
S1133C50084004480321FFF7C3BD00BF40410500ED
S1133C60504107006041090037B5FDF7F1F90446FA
S1133C70FFF710FC022817D1194B1A481A491C44A3
S1133C809C42B4FBF1F188BF01F1FF310191FFF7D0
S1133C90A7FD01991548FFF7A3FD0199144803B046
S1133CA0BDE83040FFF79CBD124B134D0D48E218A0
S1133CB09A42B2FBF5F588BF05F1FF352946FFF7B7
S1133CC08FFD0B482946FFF78BFD0C4B0C49074829
S1133CD01C449C42B4FBF1F188BF01F1FF31DEE7E3
S1133CE0FF2C310140410500002D310150410700F6
S1133CF0604109007FF0FA0280F0FA02FFA14A0451
S1133D0000A24A0400F00F00013808B50B2879D846
S1133D10DFE800F006111B2F25397843515F6B6FE4
S1133D20414BD3F8943003F00703023B052B76D8BC
S1133D303E4AD05C30E03C4BD3F8803003F00703BC
S1133D40013B032B6DD83A4AF3E7374BD3F8843061
S1133D5003F00703013B032B63D8364AE9E7324BF0
S1133D60D3F8883003F00703013B032B59D8324AB8
S1133D70DFE72D4BD3F88C3003F00703013B032B13
S1133D804FD82E4AD5E7284B1B6F13F0030340D0BE
S1133D90012B14BF0120092008BD234BD3F85C314B
S1133DA003F03003202B36D0302B36D0102B14BF29
S1133DB001200720F0E71C4BD3F85C3103F44013D7
S1133DC0B3F5001F27D0B3F5401F26D0B3F5801FED
S1133DD0EDE7154BD3F8600100F00300431E022BFE
S1133DE01DD800EB40000130D6E70F4BD3F8640137
S1133DF0F2E70D4BD3F8F03103F00703052B10D88D
S1133E000F4A96E70F4842F2CA2107F0B1FA0020A0
S1133E10C2E70720C0E70420BEE70820BCE705206E
S1133E20BAE70120B8E700BF00400E4060CE0000B2
S1133E3066CE00006ACE000066CE000066CE0000AA
S1133E406ECE000078CD000038B5314B984205465F
S1133E500BD01ED82F4B984207D02F4B9D4204D035
S1133E602E4841F6DC0107F083FA2846FFF74AFFA3
S1133E70274B9D42044625D00DD8264B9D4211D098
S1133E80254B9D421AD0254841F60B1107F070FAD4
S1133E900DE0234BE2E7224B9D42F4D1214BD3F8B2
S1133EA0884002E01F4BD3F8804004F00704042C40
S1133EB027D8DFE804F0240B0F171300194BD3F8AD
S1133EC08440F2E7174BD3F88C40EEE7BDE8384066
S1133ED007F048BABDE83840FDF72AB9BDE83840D4
S1133EE007F043BAFDF7B4F80E4B0446D3F80001CB
S1133EF0C0F301600130FFF7B1FAB4FBF0F42046DF
S1133F0038BD064841F65D1107F032FA0024F6E7A1
S1133F100400220002001E000300200078CD0000EF
S1133F200500240000400E40012808B514BF1248C3
S1133F301248FFF7E7FE0138072816D8DFE800F03B
S1133F401A1515071515040B0D4B186808BDBDE8A7
S1133F500840FDF7C9B8FDF77BF80A4BD3F80031E8
S1133F60C3F3042303FB0000F0E7074841F2D661E2
S1133F7007F0FEF90020E9E7B8003200B900340088
S1133F809C11002000400E4078CD000038B500F4AC
S1133F907813B3F5E01F054600F0FC804CD8B3F568
S1133FA0602F00F0108123D8B3F5C02F00F0A1805A
S1133FB00DD8B3F5003F00F0A880B3F5802F00F0D2
S1133FC08D80002B00F0078141F6A96109E1B3F56A
S1133FD0202F00F09480B3F5402F00F09C80B3F5BF
S1133FE0002FF1D1FDF734F8B14BD3F81C317AE04E
S1133FF0B3F5B01F00F0AA800DD8B3F5901F00F000
S11340009280B3F5A01F00F09880B3F5801FDBD138
S1134010A84B18686CE0B3F5C01F00F0A580B3F599
S1134020D01FD1D1A448FFF70FFFA14B0446D3F80A
S1134030280100F0030092E0B3F5401F00F0B480C3
S113404024D8B3F5201F00F0BA800FD8B3F5001FB1
S113405000F09E80B3F5101F00F0B380B3F5F01F9D
S1134060B2D19648BDE83840FFF7EEBEB3F5281F3D
S113407000F08480B3F5381FA6D19048FFF7E4FE22
S11340808B4BD3F82031C3F3012354E0B3F5601F05
S113409000F0CF8013D8B3F5501F00F0A780B3F51C
S11340A0581F00F0AC80B3F5481F8DD10020FFF7F6
S11340B03BFF7F4BD3F85C3103F0030315E0B3F50A
S11340C0681F00F0D080B3F5781F7FF47DAFFCF754
S11340D0BFFF0446284607F0F5FA42E0FCF7B8FFB4
S11340E0734BD3F80C31C3F308230133B0FBF3F063
S11340F038BDFCF7ADFF6E4BD3F81831F3E7FCF78E
S1134100A7FF6B4BD3F80431EDE7FCF7A1FF684B35
S1134110D3F80831E7E7FCF79BFF654BD3F814317C
S1134120C3F30423E1E76548FFF78EFE604BD3F841
S11341302031C3F30343D840DAE76148FFF784FE34
S11341405B4BD3F8303103F00303F4E75B48FFF72C
S11341507BFE574B0446D3F8200100F00F00FFF715
S11341607DF9B4FBF0F0C3E75448FFF76DFE504B04
S11341700446D3F82001C0F30310F0E74F48FFF7DB
S113418063FE4B4B0446D3F82001C0F30230E6E74C
S1134190494867E74848FFF757FE454B0446D3F8BC
S11341A02801C0F30110DAE74348FFF74DFE404B06
S11341B00446D3F82801C0F301300430CFE7414866
S11341C050E73F484EE74048FFF79CFD07283FF47F
S11341D01FAF092803D1BDE83840FCF739BF41F2CD
S11341E09F613A4807F0C4F8002081E70120FFF7F7
S11341F09BFE2F4BD3F85C31C3F3014375E734487E
S1134200FFF780FD0438062810D801A353F820F0E6
S113421085420000954200002D420000114000003C
S11342202D4200002D420000814200004FF4B8519D
S1134230D7E72848FFF766FD0438062810D801A3FD
S113424053F820F0854200009542000061420000CE
S11342501140000061420000614200008142000000
S113426041F23271BDE71C48FFF74CFD02380928C2
S11342701AD8DFE800F01115070F19191919050BE1
S1134280164BC6E6BDE83840FCF72EBFFCF72CFF02
S113429040002DE7124BBCE6BDE83840FCF748BFB0
S11342A0BDE8384007F05EB841F2897199E700BF74
S11342B000400E409C1100200300200002001E005C
S11342C0050024000400220006000E0078CD000042
S11342D00A7B36000B7C38000C7F3A00A0110020CA
S11342E090110020F8B50546FFF70EF8431E03337E
S11342F0044604D93D4842F61C1107F039F83C4EF7
S1134300112037683560FFF7FDFC052803D107F05D
S1134310C7F9FFF793FC374AD2F86038002BFBD17A
S1134320631C04D1314842F62D1107F021F8324BB9
S11343309D4251D0314B9D4253D0314B9D4203D1CC
S113434024F0C06444F080641120FFF7DBFC0528EE
S113435002D12846FEF7B6FFBD4203D90121284603
S113436000F04AFB274B11201C61FFF7CBFC05280A
S11343701FD1FCF7A7FE8542044604D21B4842F62F
S1134380591106F0F5FF3368A34204D2174842F6E8
S11343905A1106F0EDFF3368AB4204D0134842F6DD
S11343A05B1106F0E5FFFFF775F801462046FFF7BD
S11343B0A7F8FCF74DFEFEF785FFBD4203D80121A7
S11343C0002000F019FB1120FFF79CFC05280BD1FD
S11343D0BDE8F840FFF748BC24F0C06444F0007422
S11343E0B2E724F0C064AFE7F8BD00BF78CD0000A9
S11343F0901100200020C84380841E0000093D0065
S113440040420F0000400E40014B1880704700BF2F
S113441056120020014B1880704700BF5412002030
S1134420022838B50C4604D00D4842F6FC4106F08B
S11344309FFF0C4D6B6AC3F30113012B0DD064B1C4
S1134440074842F6175106F093FF074BD5F8902022
S113445033EA0202FAD1012038BD4FF48003F5E7B4
S113446078CD000000400E40FF3F473A05282DE973
S1134470F04704460F4691461FD83E4B3E4A13F878
S113448000A03E4B13F80080F1B93D4B33F81030D7
S11344901366012303FA08F8D2F8903013EA080FE0
S11344A0FAD1B9F1000F61D00125334A05FA0AF5B2
S11344B0D2F890302B42FBD158E0BDE8F0473148A8
S11344C042F6C83106F054BF2F4B022833F810606F
S11344D04ED1536AC3F30113012B49D12B4BDB6B30
S11344E05B0504D4274842F6D73106F041FF224A3F
S11344F0536A03F00303032B05D1536A23F03003FB
S113450043F020035362224D1B4BA8441E664FEA1E
S11345108808D8F80030002BFBD0B9F1000F25D063
S11345205544AD002B68002BFCD0022C1ED1EFB1FA
S1134530114B5B6A03F00303032B03D000212046D5
S1134540FFF76EFF0F4842F65A4106F011FF0122B1
S113455000210220FFF78AFF0A4842F6E44106F0F0
S113456007FF054B1E662B68002BFCD0BDE8F087C7
S11345700027C8E774CE000000400E407ACE000049
S11345808CCE000078CD000080CE000000300E40BC
S11345908004F210194B70B51C68194B9C422BD93E
S11345A00021204600F028FA1648FEF78BFE01226F
S11345B011460320FFF75AFF07F072F8FFF73EFB9E
S11345C00CB1FEF759FF104B01265E67FCF740FD66
S11345D0FEF778FEFCF776FD0546FEF75BFF014625
S11345E02846FEF78DFF1CB93146204600F004FA38
S11345F0BDE87040FFF738BB0024D5E790110020D8
S1134600002D31010148E80100400E4038B5044650
S11346101120FFF777FB042804D11F4842F63C2100
S113462006F0A6FE012200210220FFF71FFFE37A15
S1134630022B2AD8194AD25C194D6B6A23F0030362
S113464013436B62FCF750FD164B2288984294BFCB
S1134650082000206B6A23F008031843A3886862CB
S113466043EAC223EB622B6BE2881B0D1B05134349
S1134670628843EAC2232B63637A227A1B0143EAEA
S11346800233A27A13436B6338BD034842F65021C8
S113469006F06EFE0022CFE778CD00005DCE00006C
S11346A000400E4040787D0170B505461120FFF7AB
S11346B029FB022804D10F4842F6FA2106F058FEDD
S11346C00D4E0E4BB26B2C7813401C436B7844EAAE
S11346D0C324AB7844EA0364EB7844EA0324B36B61
S11346E0A34205D0002101220846FFF7BFFEB463B0
S11346F070BD00BF78CD000000400E4080E4FFF89C
S11347000028A7BF00F1604000F5614000F00F00F1
S1134710034BACBF90F80003185C4009704700BF1E
S113472014ED00E0034B5868C0F30800003818BFCC
S11347300120704700ED00E038B5C5B2452D0446B0
S113474004D9084840F2163106F012FE064B6409FB
S113475005F01F0553F82400E840C04300F00100B1
S113476038BD00BFD0CE000000E100E000F10C0332
S1134770DBB2512B10B5044604D915484FF4297106
S113478006F0F6FDEFF31083DB0702D50122104695
S113479010BD2046FFF7D0FF02460028F6D1204680
S11347A0FFF7AEFF0146EFF3118313B1B0EB531FD4
S11347B0ECD2084B5B68C3F30803002BE7D0103B33
S11347C058B2FFF79DFF88428CBF00220122DEE72A
S11347D0D0CE000000ED00E0034BD86B80F0400029
S11347E0C0F38010704700BF00300E4038B542EA75
S11347F00323B3F5007F05460C463ED019D8B3F524
S1134800807F36D00AD883B3012B21D01F4840F6CD
S11348103C2106F0ADFD002213461FE040F20112D8
S11348209342F3D11A4BD3F824321A0EC3F307433D
S113483014E0B3F5407F24D040F20132934210D00B
S113484040F201229342E1D1114BD3F8283202E025
S11348500F4BD3F82432C3F30722DBB22B60226060
S113486038BD0B4BD3F82832DFE7094BD3F81C32A1
S1134870F1E7074BD3F81C32D7E7054BD3F82032C6
S1134880E9E7034BD3F82032CFE700BF1CCF000089
S11348900081E00F08B5FFF79FFF20B1024AD2F86C
S11348A0C830002BFBD108BD0000C6431A4B0228B8
S11348B010B5D3F830320C4612D0032813D0012897
S11348C014BFDBB2C3F307231B0323F47042ECB918
S11348D05AB140F6CB11114806F04AFD002010BD34
S11348E0C3F30743F0E71B0EEEE70D49CA6E22F44B
S11348F070421343CB660120F1E70949D1F8EC205B
S113490022F470421343C1F8EC30F4E7002AF4D0E7
S113491040F6D711DFE700BF0081E00F1CCF000095
S113492000300E400378134A002B437870B514BF4F
S113493004260026002B8378946914BF02250025E1
S1134940002B037924F03F0443EA0403C47814BF22
S113495008210021012C08BF43F0010333432B43FA
S11349600B4393611368417923F4403343EA0143D1
S1134970136070BD00300E40F8B504460F46FFF7D3
S11349802BFF78B3FFF786FF174B5B68C3F3014334
S11349909C4227D0154BD3F80061FCF759FB022C3D
S11349A005460FD1124BC6F3042606FB00069E42B1
S11349B004D9104840F2627106F0DAFC022128465C
S11349C0FEF79EFDC4F1020210239340064A1361D0
S11349D00FB1FFF75FFF2CB921462846BDE8F84028
S11349E0FEF78EBDF8BD00BF00300E4000400E4003
S11349F0002D31011CCF000013B50246FFF7ECFE79
S1134A00C8B152B90D4B0191D3F80041FCF720FB1A
S1134A10C4F30422019902FB0002094B1B7843B141
S1134A20084B9A4205D8022002B0BDE81040FFF7B7
S1134A30A3BF0020F8E702B010BD00BF00400E4045
S1134A40722C0020002D3101174B4AF6E85210B5A4
S1134A50596B5A639A6FD407FCD41B6C13F003038D
S1134A601EBF124A0124C2F8B44A834216D00E4B28
S1134A709A6FD207FCD41A6C22F0030202431A6420
S1134A809A6F12F00102FBD10038084C18BF0120C4
S1134A900129C4F8B40A08BF5A6303E010B9034BF0
S1134AA0C3F8B40A10BD00BF00300E400000C64376
S1134AB02DE9F04FA0F5E16389B00024B3F5966FBA
S1134AC0CDE90244CDE90444CDE9064406468A46CC
S1134AD0934605D940F6C531554806F049FCA3E094
S1134AE0B0F5E16F534B8CBF0122002249D1D3F8BA
S1134AF01832C3F30721DBB2079104934FF4167500
S1134B004FF4966748E0BBF1000F0ED0D9F85C2053
S1134B1022F4FE4222F00202B6F5E16F42EA0122DB
S1134B2018BF02200243C9F85C20BAF1000F26D056
S1134B3020460021FFF7BAFE044610B940F6224190
S1134B40CAE701214046FFF7B1FE044610B940F61A
S1134B502A41C1E7384A536EBD4238BF3D4623F46B
S1134B60FF73E72D23F0010328BFE725B6F5E16FB6
S1134B7018BF43F0010343EA4503536654E001249C
S1134B8052E0D3F81832190EC3F307430791049384
S1134B904FF496654FF4E167DFF89C90D9F84C40E8
S1134BA00192C4F30174234605A902A8FFF71EFE6F
S1134BB0D9F8EC30019AC3F30128434606A903A8A7
S1134BC0FFF714FE049BF01B079FF91A4143B1FB46
S1134BD0F5F299182CBF012300238F421ED3EBB9A1
S1134BE0069A039FD31B4343B3FBF5F3FF182CBF73
S1134BF001230023BA4211D383B9059B029AA3EB84
S1134C00020C00FB0CF0B0FBF5F555192CBF01208C
S1134C100020AB4202D300283FF475AF044840F6AD
S1134C20134106F0A5FB0024204609B0BDE8F08F2F
S1134C301CCF00000081E00F00300E40334A08B55D
S1134C40136FD16C11F0010F03F0060344D0002B55
S1134C5042D0132857D9143813288CBF10230823A3
S1134C602A49013BCA6C180322F47F4240EA032319
S1134C701343CB64264BCA6C1B88C2F3032228332C
S1134C80013202EB820003EB5303B3FBF0F3C86C75
S1134C90013B072B28BF072320F0EE6040EA0363A3
S1134CA043F48013CB641B4BB3F90030002B12DBAD
S1134CB003F12800C0F34E030344500800EB420202
S1134CC0B3FBF2F20B6D072A28BF072223F070030F
S1134CD043EA02120A6508BDD16C01F001011943CF
S1134CE004D109280FD90A380928B6E7D26CD207AB
S1134CF002D50BB92728B0E7074840F6684106F00B
S1134D0037FB0023ACE70423AAE700BF00300E40C2
S1134D103E2C0020402C00201CCF00000C4BD3F86C
S1134D20803910B5044633B9012804D9094840F63E
S1134D30864106F01DFB084A136F23F00703234343
S1134D401367064BBDE810401888FFF777BF00BF14
S1134D500000C6431CCF000000300E403C2C002055
S1134D6038B50389C82B044604D9514840F66A2152
S1134D7006F0FEFAA28823899A4204D94C4840F6E8
S1134D806B2106F0F5FAB4F90C30C82B04DD484861
S1134D9040F66C2106F0ECFA6378012B55D1A38818
S1134DA0C82B04D94FF42761414806F0E1FAE288A0
S1134DB042F210739A4204D93D4840F67D2106F030
S1134DC0D7FAE3884A2B48D9B3F5FA7F47D340F69C
S1134DD0C312934294BF4FF000524FF040523549F2
S1134DE0B4F90C00CB6C23F0405323F001030028EA
S1134DF0A8BF43F001031343CB64D1F8EC30A2887D
S1134E0043F44073C1F8EC302B4B1A80CB6E43F063
S1134E108073CB66294BD3F8800900B10420FFF7D7
S1134E207DFF274B21891980264BB4F90C20A088DB
S1134E301A80FFF703FFA37BA3B1012B23D01C48E7
S1134E4040F67C1106F094FA0FE0022BAFD1A38850
S1134E500A2BACD940F67521A6E70022BFE74FF034
S1134E608052BCE7134B184A9A65012260881146A8
S1134E70FFF71EFE054648B90D4840F6B42106F07A
S1134E8077FA284638BD0B4B104AEDE7094AD36B35
S1134E9043F48063D3636078FFF7D6FDA37AA3F16C
S1134EA0200253425341054AC2F89437E9E700BF50
S1134EB01CCF000000300E403C2C00200000C643F4
S1134EC03E2C0020402C002077402057372110B77B
S1134ED01F2970B505460C46164603D9064891218C
S1134EE006F046FA05F1424000F5801004EBC004D8
S1134EF0A400266070BD00BF67CF0000082838B545
S1134F0004460D4604D84FF6FF73CB40DB0704D4A8
S1134F10084840F22D4106F02BFA30230C2013FBF5
S1134F20040000F18C40012100F5082001FA05F588
S1134F30056038BD3ACC0000082838B504460D4653
S1134F4004D84FF6FF73CB40DB0704D4084840F283
S1134F50FE3106F00DFA30230C2013FB040000F19F
S1134F608840012100F5082001FA05F5056038BDE7
S1134F703ACC0000072810B5044603D9064852214C
S1134F8006F0F6F9054AD2F8443423F00303234328
S1134F90C2F8443410BD00BFB2CF00000080084006
S1134FA02DE9F04708289DF820909DF824800646B6
S1134FB08A4614461F4604D84FF6FF73CB40DB07DE
S1134FC003D42348BF2106F0D3F98AEA040333F05B
S1134FD0030303D01E48C12106F0CAF9072C0AF0C6
S1134FE0030A4FF00F0123D8A5001A4806FA05F268
S1134FF0A94006F089FB032117480AFA05F2A940E3
S113500006F082FB3A4621461448FFF761FF4A4600
S113501021461348FFF75CFF124A13480123A340BB
S1135020C2F8243421464246BDE8F047FFF750BF9A
S1135030A4F10805AD000D4806FA05F2A94006F0F2
S113504063FB03210A480AFA05F2A940D8E700BF26
S1135050B2CF00000084084008840840108408404F
S113506014840840008008402884084004840840D0
S11350700C8408400828F8B505460C4616461F4619
S113508004D84FF6FF73CB40DB0704D419484FF420
S1135090B07106F06DF926B121462846CFB1FFF76D
S11350A02DFF05EB4503072C4FEA03134FF00F01C7
S11350B012D8A00006FA00F281400F48184406F006
S11350C023FBAEB92146284677B1BDE8F840FFF787
S11350D015BFFFF731FFE4E7A4F10800800006FAEA
S11350E000F281400548E9E7BDE8F840FFF724BF36
S11350F0F8BD00BFB2CF000004800840088008401B
S1135100074B0422C3F88020BFF34F8FBFF36F8F88
S1135110044B0021D9664FF4EA401962FEF72ABA1B
S113512000E100E000200040172838B505460C4691
S113513003DD0848772106F01BF91F2D84F00104D4
S113514003D90548912106F013F9044B2B449B0025
S11351501C6038BDFECF000067CF0000A0018110A5
S113516010B5044618B91B48912106F001F92378BB
S11351701B0613F0604F03D01648922106F0F8F88E
S1135180E378072B03D91348A32106F0F1F8012192
S11351904FF4EA40FEF7EEF9B4F8013022785BBA36
S11351A09BB243EA02630C4A136000231362D36286
S11351B053634FF00043D3664FF0FF339366074ABF
S11351C00421C2F88011E3785B01DBB282F8023378
S11351D0116010BDFECF00000020004000E100E09F
S11351E02DE9F041C3B20126172805460C46904626
S11351F006FA03F603DD3A48EC2106F0B9F81CB9C7
S11352003748ED2106F0B4F8236823F47C1323F027
S11352100F031BB13248F22106F0AAF8A37A1B044B
S113522013F47C0F04D02E4840F2091106F0A0F8C4
S1135230E37A1B0513F07E6F04D0294840F20B116A
S113524006F096F8237B5B0513F0FE5F04D0244838
S113525040F20D1106F08CF8224F637BBE663020BD
S113526000FB05702268C0F88020C0F88830E37A1B
S1135270A27A1B0543EA0243227B43EA425328F005
S11352800302C0F88430C0F8982006F027FAFB6EB9
S11352903343FB66237A13B17B6B33437B63637ABB
S11352A013B1FB6A3343FB620E4B1A68237923B1B3
S11352B0DB431B0263F47F431A4063790BB142EA78
S11352C00322A3790BB122EA0302E3791A43054BC3
S11352D01A60054A9662DE63BDE8F04106F004BA3E
S11352E0FECF0000002000400020004410B5C3B2EF
S11352F00124172804FA03F404DD094840F2971145
S113530006F036F806F0EAF9064AD36E23EA0403F7
S1135310D366054B1C62BDE8104006F0E5B900BF3A
S1135320FECF0000002000400020004410B5C3B2AE
S11353300124172804FA03F404DD0B4840F2B511E4
S113534006F016F806F0CAF9084B1A6A224209D187
S11353509B6A34EA03030CBF0124002406F0C4F959
S1135360204610BD0024F9E7FECF000000200040D5
S1135370022838B504460D4603D911484C2105F0DE
S1135380F7FF6B791F2B03D90D484F2105F0F0FF70
S1135390AB786A789B0143EA82032A781343EA785C
S11353A043EA02132A7943EAC2236A7943EA0233BD
S11353B0AA79043443EA42432401024A135138BD12
S11353C04AD0000000200640014B1860704700BF1F
S11353D00000C442427801790378002A827870B5CB
S11353E014BF04260026002AC27814BF1025002505
S11353F0002A42794FEA023242EA012242EA0302D7
S1135400837942EA8332C37914BF20240024002B19
S1135410037A42EA034343EA0603427A43EA050372
S113542014BF4FF4004100212343002A14BF4FF45A
S1135430003200220B431343014A136070BD00BFC6
S1135440002006402DE9F04180460C461F461646D2
S113545022B934484FF4A17105F08AFF3CB9324BAC
S113546098450CBF31483248FEF790FD0446402F62
S11354704BD009D8A7B1202F3DD0BDE8F041294831
S113548040F2891105F074BF602FF6D1B6EB940F8A
S113549004D9244840F2831105F06AFF042108E08E
S11354A0B6EB141F04D91F484FF4BA7105F060FF1E
S11354B010214E4371081F4D01EB4414B4FBF6F662
S11354C0203EB5EBC60F4FEAC60404D215484FF48C
S11354D0D07105F04DFFD8F8003023F06003C8F810
S11354E00030D8F800302C401F43C8F80070C8F8CA
S11354F01440BDE8F081B6EBD40F04D9094840F25A
S1135500791105F035FF0821D3E70625B4FBF5F33F
S1135510B34204D203484FF4BF7105F029FF294672
S1135520C7E700BF96D000000008014050410700C3
S113553040410500F8FF7F002DE9F041DFF870805D
S1135540414506460F4615461C4604D917484FF4F4
S1135550EA7105F00DFF07EA080705BB202C05D00A
S1135560402C1FD0002C14BF40241024012307F525
S113557080775F4300233A463046194604F04CFBDB
S1135580554304FB035100FB04F8A2FB040400236D
S11355903A46214404F040FB4044BDE8F0818024B5
S11355A00025E3E780240323E1E700BF96D0000051
S11355B0F8FF7F000A4B70B59842044605680CBF9B
S11355C008480948FEF7E2FC2368616905F0010513
S11355D02A4603F06003BDE87040FFF7ADBF00BF8B
S11355E000080140504107004041050070B50646DF
S11355F00C46154622B90F4840F28E2105F0B8FE3C
S11356003CB90D4B9E420CBF0C480D48FEF7BEFC46
S113561004460C4B6D00013CB4FBF5F413EA04237F
S11356204FEA042504D0034840F2B32105F0A0FE5C
S1135630756170BD96D0000000080140504107001C
S113564040410500070080FF38B5164B98420446D8
S11356500D4620D003F5806398421CD003F5806387
S1135660984218D003F58063984214D003F5806300
S1135670984210D003F5806398420CD003F5305360
S1135680984208D003F58063984204D006484FF44A
S1135690337105F06DFEEB435B0003F00A03E36036
S11356A0E56038BD0000014096D0000038B5254BB8
S11356B0254D984204461ED0A8421CD003F5006331
S11356C0984218D003F58063984214D003F58063A0
S11356D0984210D003F5806398420CD003F5305300
S11356E0984208D003F58063984204D0174840F2EA
S11356F0424105F03DFE40F6AA63E36041F2050233
S1135700002323606260124AA3606361E364A264BD
S11357100C4A236694426367A367E36703D002F5E8
S11357200062944200D123650023AC42A36506D0F5
S1135730084A944203D002F58062944200D1E365A2
S113574038BD00BF000001400004014096D00000B5
S1135750F9FF0100000C014038B5314B9842044672
S11357600D4620D003F5806398421CD003F5806376
S1135770984218D003F58063984214D003F58063EF
S1135780984210D003F5806398420CD003F530534F
S1135790984208D003F58063984204D0214840F22F
S11357A0FD2105F0E5FD2046FFF780FFAB7C1BB132
S11357B0236843F080432360EB7C1BB12B7D43F0D3
S11357C08003A3652A8A6B7B1343EA8913436360CE
S11357D02B7BD5E901122046FFF734FE6B7D1BB10C
S11357E0236843F480332360AB7D1BB1236843F407
S11357F000432360EB7D2A7E1B07120502F4E002BE
S113580003F0E04313432366636F23F030036367BD
S1135810626F6B7E134363672B78E36038BD00BF10
S11358200000014096D0000038B5314B9842044640
S11358300D4618D003F58063984214D003F58063B5
S1135840984210D003F5806398420CD003F580632E
S1135850984208D003F58063984204D0254840F26A
S1135860693105F085FD2046FFF720FFA97B2A8AD0
S11358702368002942F0010214BF4FF48061002123
S113588013430B432A7D23602368002A14BF4FF07F
S11358900052002213432360AB7C1BB1EB7C43F02A
S11358A08003A3652B7B43F480536360D5E9011225
S11358B02046FFF79BFE6B7B0BB11023E3606B7DEF
S11358C01BB1236843F480332360AB7D1BB1236891
S11358D043F400432360EB7D2A7E1B07120503F08B
S11358E0E04302F4E002134323662B78E36038BDFF
S11358F00000014096D000002DE9F047374FDDE964
S113590008840646154699468A4641B908232370F9
S11359104FF4D963A360324B6760E360FEE75AB18A
S1135920531E134208D00823237040F2CB63A360B4
S11359302B4B6760E360FEE705F0D0FE002D08BF47
S113594004254D4538BF4D46D6F808E06B1E13EAD2
S11359500E0FC5F1000202EA0E0208BF002515442D
S113596009F1FF33AA4413EA0A0FC9F1000202EA5B
S11359700A0208BF4FF0000902EB09037268013202
S1135980A2EB0E01A3EB0E0E7145844615491AD203
S1135990B8F1000F02D09B1AC8F80030162540F267
S11359A02273C4E9023125706760604605F09CFEED
S11359B040F2D763A3600A4B25706760E36000255B
S11359C02846BDE8F087B360002323704FF4E563F5
S11359D0C4E90231676005F087FEF1E7E3D0000017
S11359E05AD1000042D1000030B50C4685B01146B2
S11359F01D461BB9039205F0AFFE039906480195B5
S1135A000023009304220123002C18BF2046FFF733
S1135A1073FF05B030BD00BFA41100201FB50C4BAF
S1135A201B78012B0AD1FEF77DFE002814BF6FF00E
S1135A3005004FF0FF3005B05DF804FB684600F048
S1135A4027FA9DF80000003818BF01204042F2E711
S1135A5076500020084B187801280AD1074B1B7890
S1135A60012B07D1064B1B78002B14BF0320022007
S1135A7070470020704700BF73500020765000200C
S1135A80775000201FB5FEF74DFE48B9074B1B7831
S1135A90012B02D0684600F08BF94FF0FF3001E093
S1135AA06FF0050005B05DF804FB00BF76500020E0
S1135AB030B585B00546FEF735FE18B10024204602
S1135AC005B030BDB5B91C2004F060FA04460028C6
S1135AD0F4D00123174903766A46204600F0E4FB1C
S1135AE09DF80030EBB1237E012BE7D1204604F072
S1135AF055FAE3E7AC686CB91C2004F047FA044695
S1135B000028DBD00123237629680A4B002908BF2B
S1135B101946E1E7EB681B2BD0D914F00303F2D04C
S1135B20CCE72DB16B68DB0702D501236376C6E7AA
S1135B300023FBE76FD100007FB504460E461546EF
S1135B40FEF7F0FD18B10024204604B070BD002C0F
S1135B50F9D0C5B9182004F019FA04460028F2D087
S1135B600123144903746B463246204600F09CFE20
S1135B709DF80030002BE7D0237C012BE3D1204695
S1135B8004F00CFADFE7AC686CB9182004F0FEF9F5
S1135B9004460028D7D0012323742968054B002923
S1135BA008BF1946DFE7EB68172BCCD914F00303C1
S1135BB0F2D0C8E775D100002DE9F04F8FB08146CF
S1135BC08A461646FEF7AEFD08B100243FE0B9F15F
S1135BD0000FFAD0002E3ED1C82004F0D7F90446B5
S1135BE00028F2D0012680F8C0604FF4806004F0F1
S1135BF0CDF905460028E8D0414F84F8C1604FF440
S1135C0080681F260DF1280B00223E495B4604F1F3
S1135C10980000F0D7FA9DF82820002A50D10723D5
S1135C20CDE90623384BCDF820B003EA9803CDE93B
S1135C300223CDE904225346CDE900654A4639469C
S1135C40204601F00FF99DF82830002B38D120466A
S1135C500FB0BDE8F08FB468DCB9C82004F096F941
S1135C6004460028B1D0012384F8C030D6F814804B
S1135C70B8F1000F2CD14FF4806004F087F9054689
S1135C8070B994F8C030012B9FD1204604F086F9F6
S1135C909BE7F368C72B98D914F00303E4D094E787
S1135CA0012384F8C1304FF480683768144BB66917
S1135CB0002F08BF1F46FEB1731C1FD0372E17DDFF
S1135CC094F8C130012BDCD1284604F067F9D8E7F9
S1135CD035694DB9404604F059F905460028D0D03D
